:1009DA00313541382A4436230020454E54455220A9
:1009EA0050415353574F52442000434F52524543AC
:1009FA00542050415353574F5244002041434345DA
:100A0A005353204752414E54454420002057524FD9
:100A1A004E472050415353574F52442000204143E0
:0E0A2A00434553532044454E49454420200087
:100AE700C10010213132334134353642373839436A
:040AF7002A3023443A
:100A3800E4F5A0C282C280C2817F38FE120AD512B4
:100A48000A947F067E00120AD5120A947F0C7E0053
:100A5800120AD5120A947F017E00120AD5120A944E
:070A68007F807E00020AD529
:040A94007F047E005D
:100A9800E4FDFCC3ED9FEC9E5015E4FBFA0BBB0094
:0F0AA800010ABA01F8BB7EF50DBD00010C80E418
:010AB700221C
:040AD1007FC07E0064
:100AD500C280C281D2828FA07F0A7E00120A98C28C
:020AE50082226B
:100AFC00D280C281D2828FA07F0A7E00120A98C255
:020B0C00822243
:100A6F008B088A09890AAB08AA09A90A120AB86071
:100A7F0013050AE50A7002050914F9120AB8FF12E4
:050A8F000AFC80E222D8
:1008B60075B00FE5B0B40FFBE5B0640F60FA7F14B6
:1008C6007E00120A9820B006753A00753B0320B1E7
:1008D60006753A00753B0220B206753A00753B0173
:1008E60020B305E4F53AF53B75B00FC2B4D2B5D2E4
:1008F600B6D2B7E5B064EF6005E4F53CF53DD2B499
:10090600C2B5D2B6D2B7E5B064DF6006753C0075F5
:100916003D01D2B4D2B5C2B6D2B7E5B064BF600667
:10092600753C00753D02D2B4D2B5D2B6C2B7E5B0B9
:10093600647F6006753C00753D03E53D25E025E0D6
:080946002421253BF8E6FF2205
:100800007432120A387F807E00120AD57BFF7A0983
:1008100079E3120A6FE4F53EF53F1208B68F3174A2
:1008200032253FF8A631120AD17B007A00793212C4
:100830000A6F053FE53F7002053EC39408E53E643C
:1008400080948040D5E4F53EF53F7432253FF8E6CC
:10085000FF74DA253FF5827409353EF583E493FE93
:10086000EFB50604C2008002D200053FE53F7002EA
:10087000053E6408453E70D27F807E00200017123E
:100880000AD57BFF7A0979F4120A6F120AD17BFF2D
:100890007A0A79058015120AD57BFF7A0A79161231
:1008A0000A6F120AD17BFF7A0A7927120A6F7F40FA
:0608B0007E1F120A9822CF
:0300000002094EA4
:0C094E00787FE4F6D8FD75813F02099522
:100AB800BB010689828A83E0225002E722BBFE023C
:090AC800E32289828A83E493226F
:10095A00020800E493A3F8E493A34003F68001F2AB
:10096A0008DFF48029E493A3F85407240CC8C3339E
:10097A00C4540F4420C8834004F456800146F6DF6D
:10098A00E4800B0102040810204080900AE7E47E0C
:10099A00019360BCA3FF543F30E509541FFEE49362
:1009AA00A360010ECF54C025E060A840B8E493A329
:1009BA00FAE493A3F8E493A3C8C582C8CAC583CA54
:1009CA00F0A3C8C582C8CAC583CADFE9DEE780BE0C
:010AFB0000FA
:00000001FF
