:10092400E4F5A0C282C280C2817F38FE1209D012CF
:1009340009A21209CC1209A27F0C7E001209D0125E
:1009440009A27F017E001209D01209A27F807E00D5
:030954000209D0C5
:0409A2007F047E0050
:1009A600E4FDFCC3ED9FEC9E5015E4FBFA0BBB0087
:0F09B600010ABA01F8BB7EF50DBD00010C80E40B
:0109C500220F
:0A09C6002430FF1209E27F067E00D4
:1009D000C280C281D2828FA07F0A7E001209A6C285
:0209E000822271
:1009E200D280C281D2828FA07F0A7E001209A6C263
:0209F20082225F
:10097D008B168A178918AB16AA17A9181208B66014
:10098D00130518E5187002051714F91208B6FF12B1
:05099D0009E280E222E6
:03000B00020800E8
:10080000C0E0C0F0C0D075D000C000C002C003C0BE
:1008100004C005C006C007758CFF758AC40509E5CC
:100820000970020508AE08FF7C007D3C1208CF8CE1
:100830000A8D0BAE0AAF0B7C007D0A1208CF8C0E1E
:100840008D0FAE0AAF0B7C007D0A1208CF8E108F81
:1008500011AE08AF097C007D3C1208CF8E0C8F0DC5
:100860007C007D0A1208CF8C128D13AE0CAF0D7C6C
:10087000007D0A1208CF8E148F157F807E0012092A
:10088000D07F017E001209D0E5151209C6E51312CA
:1008900009C67F3A1209C9E5111209C6E50F120906
:1008A000C6D007D006D005D004D003D002D000D0E7
:0608B000D0D0F0D0E032D0
:100957001209241209A2740875900FD2B47589057B
:10096700758CFF758AC4D2A9D2AFE5906004D28C8A
:0609770080F8C28C80F440
:030000000209F4FE
:0C09F400787FE4F6D8FD758118020957E1
:1008B600BB010689828A83E0225002E722BBFE0240
:0908C600E32289828A83E4932273
:1008CF00BC000BBE0029EF8DF084FFADF022E4CC0D
:1008DF00F875F008EF2FFFEE33FEEC33FCEE9DECD6
:1008EF00984005FCEE9DFE0FD5F0E9E4CEFD22ED1C
:1008FF00F8F5F0EE8420D21CFEADF075F008EF2F66
:10090F00FFED33FD4007985006D5F0F222C398FD56
:05091F000FD5F0EA22F3
:00000001FF
